{
  "abi": [
    {
      "inputs": [],
      "stateMutability": "nonpayable",
      "type": "constructor"
    },
    {
      "inputs": [
        {
          "internalType": "address",
          "name": "account",
          "type": "address"
        }
      ],
      "name": "balanceOf",
      "outputs": [
        {
          "internalType": "uint256",
          "name": "",
          "type": "uint256"
        }
      ],
      "stateMutability": "view",
      "type": "function"
    },
    {
      "inputs": [],
      "name": "name",
      "outputs": [
        {
          "internalType": "string",
          "name": "",
          "type": "string"
        }
      ],
      "stateMutability": "view",
      "type": "function"
    },
    {
      "inputs": [],
      "name": "symbol",
      "outputs": [
        {
          "internalType": "string",
          "name": "",
          "type": "string"
        }
      ],
      "stateMutability": "view",
      "type": "function"
    },
    {
      "inputs": [],
      "name": "totalSupply",
      "outputs": [
        {
          "internalType": "uint256",
          "name": "",
          "type": "uint256"
        }
      ],
      "stateMutability": "view",
      "type": "function"
    },
    {
      "inputs": [
        {
          "internalType": "address",
          "name": "to",
          "type": "address"
        },
        {
          "internalType": "uint256",
          "name": "amount",
          "type": "uint256"
        }
      ],
      "name": "transfer",
      "outputs": [],
      "stateMutability": "nonpayable",
      "type": "function"
    }
  ],
  "bytecode": {
    "object": "0x60c060405260116080908152702730b232b9102230b134ba102a37b5b2b760791b60a0526000906100309082610124565b5060408051808201909152600381526213911560ea1b60208201526001906100589082610124565b50620f424060025534801561006c57600080fd5b50600254336000908152600360205260409020556101e3565b634e487b7160e01b600052604160045260246000fd5b600181811c908216806100af57607f821691505b6020821081036100cf57634e487b7160e01b600052602260045260246000fd5b50919050565b601f82111561011f57600081815260208120601f850160051c810160208610156100fc5750805b601f850160051c820191505b8181101561011b57828155600101610108565b5050505b505050565b81516001600160401b0381111561013d5761013d610085565b6101518161014b845461009b565b846100d5565b602080601f831160018114610186576000841561016e5750858301515b600019600386901b1c1916600185901b17855561011b565b600085815260208120601f198616915b828110156101b557888601518255948401946001909101908401610196565b50858210156101d35787850151600019600388901b60f8161c191681555b5050505050600190811b01905550565b610386806101f26000396000f3fe608060405234801561001057600080fd5b50600436106100575760003560e01c806306fdde031461005c57806318160ddd1461007a57806370a082311461009157806395d89b41146100ba578063a9059cbb146100c2575b600080fd5b6100646100d7565b604051610071919061021e565b60405180910390f35b61008360025481565b604051908152602001610071565b61008361009f366004610288565b6001600160a01b031660009081526003602052604090205490565b610064610165565b6100d56100d03660046102aa565b610172565b005b600080546100e4906102d4565b80601f0160208091040260200160405190810160405280929190818152602001828054610110906102d4565b801561015d5780601f106101325761010080835404028352916020019161015d565b820191906000526020600020905b81548152906001019060200180831161014057829003601f168201915b505050505081565b600180546100e4906102d4565b336000908152600360205260409020548111156101c95760405162461bcd60e51b81526020600482015260116024820152704e6f7420656e6f75676820746f6b656e7360781b604482015260640160405180910390fd5b33600090815260036020526040812080548392906101e8908490610324565b90915550506001600160a01b0382166000908152600360205260408120805483929061021590849061033d565b90915550505050565b600060208083528351808285015260005b8181101561024b5785810183015185820160400152820161022f565b506000604082860101526040601f19601f8301168501019250505092915050565b80356001600160a01b038116811461028357600080fd5b919050565b60006020828403121561029a57600080fd5b6102a38261026c565b9392505050565b600080604083850312156102bd57600080fd5b6102c68361026c565b946020939093013593505050565b600181811c908216806102e857607f821691505b60208210810361030857634e487b7160e01b600052602260045260246000fd5b50919050565b634e487b7160e01b600052601160045260246000fd5b818103818111156103375761033761030e565b92915050565b808201808211156103375761033761030e56fea2646970667358221220de9af416887ba9314ce1848869caade1ae49cf5c152712f624a36df26d6367ea64736f6c63430008140033",
    "linkReferences": {}
  },
  "methodIdentifiers": {
    "balanceOf(address)": "70a08231",
    "name()": "06fdde03",
    "symbol()": "95d89b41",
    "totalSupply()": "18160ddd",
    "transfer(address,uint256)": "a9059cbb"
  },
  "id": 13
}